:020000040800F2
:1000000000000220C90100081902000819020008B6
:100010001902000819020008190200080000000077
:1000200000000000000000000000000019020008AD
:100030001902000800000000190200081902000857
:100040001902000819020008190200081902000824
:100050001902000819020008190200081902000814
:100060001902000819020008190200081902000804
:1000700019020008190200081902000819020008F4
:1000800019020008190200081902000819020008E4
:1000900019020008190200081902000819020008D4
:1000A00019020008190200081902000819020008C4
:1000B00019020008190200081902000819020008B4
:1000C00019020008190200081902000819020008A4
:1000D0001902000819020008190200081902000894
:1000E0001902000819020008190200081902000884
:1000F0001902000819020008190200081902000874
:100100001902000819020008190200081902000863
:100110001902000819020008190200081902000853
:100120001902000819020008190200081902000843
:100130001902000819020008190200081902000833
:100140001902000819020008190200081902000823
:100150001902000819020008190200081902000813
:100160001902000819020008190200081902000803
:100170001902000819020008190200080000000016
:08018000190200081902000831
:1001880010B5054C237833B9044B13B10448AFF3C9
:1001980000800123237010BD000000200000000033
:1001A8008002000808B5034B1BB103490348AFF3AD
:1001B800008008BD00000000040000208002000844
:1001C800DFF834D0002103E00C4B5B584350043176
:1001D8000B480C4B42189A42F6D30B4A02E0002314
:1001E80042F8043B094B9A42F9D300F013F800F0A7
:1001F8001FF800F018F8704700000220A00200085D
:100208000000002000000020000000201C0000204A
:10021800FEE70000024B4FF000629A60704700BF93
:1002280000ED00E0FEE708B5FFF7FCFFFEE7000081
:1002380070B50D4E0D4CA41BA4100025A54209D184
:100248000B4E0C4C00F018F8A41BA4100025A54276
:1002580005D170BD56F8253098470135EEE756F8B8
:10026800253098470135F2E79802000898020008FF
:10027800980200089C020008F8B500BFF8BC08BC4A
:100288009E467047F8B500BFF8BC08BC9E4670474C
:04029800AD010008AC
:04029C0089010008CC
:04000005080001C925
:00000001FF
